:100000000C9434000C9451000C9451000C94510049
:100010000C9451000C9451000C9451000C9451001C
:100020000C9451000C9451000C9451000C9451000C
:100030000C9451000C9451000C9451000C945100FC
:100040000C9453000C9451000C9451000C945100EA
:100050000C9451000C9451000C9451000C945100DC
:100060000C9451000C94510011241FBECFEFD8E026
:10007000DEBFCDBF11E0A0E0B1E0E6E8F4E002C0F1
:1000800005900D92AE38B107D9F721E0AEE8B1E0A6
:1000900001C01D92AA39B207E1F70E9401020C9437
:1000A00041020C9400001F920F920FB60F92112480
:1000B0008F939F93EF93FF93EEE6F0E080818E7F26
:1000C0008083809194019091950101969093950180
:1000D000809394014E9721F410929501109294010F
:1000E00080EF86BD1092990103C08F5F80939901C4
:1000F00080919901803FC8F388B1816088B91BB8AD
:1001000088B18E7F88B988B1816088B9E0918E010D
:10011000F0E0E157FE4F80818BB988B1826088B9E9
:1001200088B18D7F88B981E08BB988B18E7F88B91D
:1001300088B1816088B9E0918E01F0E0EC5DFE4FFE
:1001400080818BB988B1826088B988B18D7F88B988
:100150001092990103C08F5F80939901809199015A
:10016000803FC8F381E08BB988B18E7F88B988B1B0
:10017000816088B91BB888B1826088B988B18D7FE9
:1001800088B980918E018F5F80938E01843011F445
:1001900010928E01EEE6F0E0808181608083FF9115
:1001A000EF919F918F910F900FBE0F901F90189518
:1001B000EEE6F0E080818E7F80831AB888B18B7F75
:1001C00088B999B188B1846088B98FEF8AB9808184
:1001D0008160808380E00DC0292F30E0082E02C0AE
:1001E000359527950A94E2F720FF02C08F5F0895A6
:1001F0008F5F843088F380E00895DC01EFE8F1E060
:10020000108211821282138290E02DC0EC91EE23B5
:1002100049F18FE98E0F8A3158F4292F30E0F0E050
:10022000E156FF4F8081F901E157FE4F808319C0ED
:1002300080ED8E0F8A3058F4292F30E0F0E0E6513F
:10024000FF4F8081F901E157FE4F80830AC0EE32F3
:1002500041F49150E92FF0E0E157FE4F8081806832
:10026000808311969F5F943088F28C918E3229F4AE
:10027000EFE8F1E08381806883830895DF92EF9255
:10028000FF920F931F93CF93DF938C017B01D42EAA
:10029000D0E00E94D800C82F0E94D800C817E1F310
:1002A000C13021F4DF5FDD110DC00BC0C23021F47D
:1002B000D15040F4DD0D06C0C43021F4F701D083E5
:1002C0000CC0D0E0ED2FF0E0EE0FFF1FE00FF11FAC
:1002D000808191810E94FD00DCCFDF91CF911F9141
:1002E0000F91FF90EF90DF900895CF93DF9300D0B0
:1002F00000D0CDB7DEB719821A821B821C8242E081
:10030000BE016F5F7F4F8BE391E00E943E018981C8
:10031000811127C044E0BE016E5F7F4F83E391E00F
:100320000E943E018A818230C8F443E0BE016D5FC5
:100330007F4F8DE291E00E943E018B81811109C0C7
:1003400042E0BE016C5F7F4F89E291E00E943E0176
:10035000E1CF8130A1F28230E9F6D1CF8330D1F6FE
:10036000CECF813061F60F900F900F900F90DF91FC
:10037000CF9108958FE787B987E880937A0087E067
:1003800080937C000895ECE7F0E090818F70982BCB
:100390009083EAE7F0E080818064808380917A0036
:1003A00084FFFCCF209178008091790090E0982F15
:1003B0008827820F911D089587E00E94C301209134
:1003C00093012130C9F44091280150E0BA016956E7
:1003D0007E4F282F392F2617370718F010929601D5
:1003E000089587E991E0841B950B8217930740F0ED
:1003F00081E0809396010895223011F410929601C5
:1004000008958FEF8AB987B914B815B882E085BD11
:1004100080ED86BD81E080936E00789484E088B999
:100420000E94BA010E94DC01D0E010E001C0DC2F84
:100430000E94D800C82FD81310C0882371F08130D3
:1004400021F41F5F123049F405C0823031F411509D
:1004500020F402C010E001C011E011110BC08FE3C5
:1004600091E00E94FD000E94D800843001F70E94B4
:100470007501DDCF1130D9F684E491E00E94FD00D2
:06048000D6CFF894FFCF77
:10048600777C395E79717D74061E723854545C73BC
:1004960067506D78C13E00006E003F065B4F666D8B
:1004A6007D077F6F01020408055F0163016601692C
:1004B600016E01740179017E018301880183016364
:1004C6006F6E660063682E310064697200726C7923
:1004D6002E3100726C792E3200726C792E330079CF
:1004E6006573006E6F0073700068797374006261E3
:1004F600636B2E0073702E680073702E6C00746927
:0E0506006D65006261636B006374726C0000CF
:00000001FF
